:100000000C94D6000C94FE000C94FE000C94FE00A0
:100010000C94FE000C94FE000C94FE000C94FE0068
:100020000C94FE000C94FE000C94FE000C94FE0058
:100030000C94FE000C94FE000C94FE000C94FE0048
:100040000C94A8070C94FE000C94CA060C94A40609
:100050000C94FE000C94FE000C94FE000C94FE0028
:100060000C94FE000C94FE0007634236B79BD8A7A1
:100070001A39685618AEBAAB558C1D3CB7CC5763CD
:10008000BD6DEDFD753EF6177231BF000000803F7B
:1000900008000000BE922449123EABAAAA2ABECD97
:1000A000CCCC4C3E00000080BEABAAAAAA3E000009
:1000B0000000BF000000803F000000000008417801
:1000C000D3BB4387D1133D190E3CC3BD4282AD2B38
:1000D0003E68EC8276BED98FE1A93E4C80EFFFBE30
:1000E00001C4FF7F3F00000000002D000000000061
:1000F000240027002A0000000000250028002B0013
:100100000000000023002600290004040404040465
:1001100004040202020202020303030303030102B6
:100120000408102040800102040810200102040885
:1001300010202C2073756E736574202D3E200053A3
:1001400061666574792073656E736F72733A20739C
:10015000756E72697365202D3E20004C6967687466
:10016000206F6E2073756E73657420736964653AD1
:1001700020004C69676874206F6E2073756E726919
:10018000736520736964653A2000506F7369746900
:100190006F6E3A2000000000080002010000030416
:1001A000070000000000000000009C0C11241FBE8E
:1001B000CFEFD8E0DEBFCDBF11E0A0E0B1E0EEE4CC
:1001C000FCE202C005900D92AE33B107D9F722E0F0
:1001D000AEE3B1E001C01D92A534B207E1F710E033
:1001E000C6EDD0E004C02197FE010E947211C53D0A
:1001F000D107C9F70E94BA090C9425160C94000087
:100200000F931F93CF93DF938C01C0E0D0E0F801F0
:10021000EC0FFD1F6491662371F0E0918501F09170
:1002200086010190F081E02D85E891E00995892B08
:1002300011F02196ECCFCE01DF91CF911F910F915C
:1002400008950895CF92DF92EF92FF920F931F933C
:10025000CF93DF936C017A018B01C0E0D0E0CE1523
:10026000DF0589F0D8016D918D01D601ED91FC91EA
:100270000190F081E02DC6010995892B11F47E01D2
:1002800002C02196ECCFC701DF91CF911F910F9152
:10029000FF90EF90DF90CF900895089580E090E078
:1002A0000895FC01538D448D252F30E0842F90E07C
:1002B000821B930B541710F0CF9608950197089561
:1002C000FC01918D828D981761F0828DDF01A80F5E
:1002D000B11D5D968C91928D9F5F9F73928F90E080
:1002E00008958FEF9FEF0895FC01918D828D9817EF
:1002F00031F0828DE80FF11D858D90E008958FEF2C
:100300009FEF0895FC01918D228D892F90E0805CF4
:100310009F4F821B91098F739927089585E891E07B
:100320000E94820121E0892B09F420E0822F0895A8
:10033000FC01848DDF01A80FB11DA35ABF4F2C9182
:10034000848D90E001968F739927848FA689B78951
:100350002C93A089B1898C9180648C93938D848D2A
:10036000981306C00288F389E02D80818F7D8083F9
:100370000895EF92FF920F931F93CF93DF93EC01B9
:1003800081E0888F9B8D8C8D981305C0E889F98951
:10039000808185FD24C0F62E0B8D10E00F5F1F4F6E
:1003A0000F731127E02E8C8DE8120CC00FB607FCDE
:1003B000FACFE889F989808185FFF5CFCE010E94C7
:1003C0009801F1CF8B8DFE01E80FF11DE35AFF4F2D
:1003D000F0820B8FEA89FB898081806207C0EE89F9
:1003E000FF896083E889F98980818064808381E066
:1003F00090E0DF91CF911F910F91FF90EF900895C2
:10040000CF93DF93EC01888D8823C9F0EA89FB89BB
:10041000808185FD05C0A889B9898C9186FD0FC0B2
:100420000FB607FCF5CF808185FFF2CFA889B98987
:100430008C9185FFEDCFCE010E949801E7CFDF912F
:10044000CF910895833081F028F4813099F0823083
:10045000A1F008958730A9F08830B9F08430D1F444
:10046000809180008F7D03C0809180008F77809382
:100470008000089584B58F7702C084B58F7D84BDD8
:1004800008958091B0008F7703C08091B0008F7D78
:100490008093B00008952FB7F89460915B0170913C
:1004A0005C0180915D0190915E012FBF0895CF9313
:1004B000CEE18AEE90E00E940001C150D1F788E1C0
:1004C00091E0CF910C9467092F923F924F925F92E7
:1004D0006F927F928F929F92AF92BF92CF92DF9254
:1004E000EF92FF920F931F93CF93DF93CDB7DEB7B9
:1004F00064970FB6F894DEBF0FBECDBF282E24E65A
:10050000281710F444E6242E30913E023D8340919A
:100510003D024E838BE191E00E94670960912F02BA
:1005200070E080E090E04AE00E94790985E291E085
:100530000E946709822C912CA12CB12C4AE0C501A4
:10054000B4010E9479098EE291E00E94670988E176
:1005500091E00E94670980912F02821528F4209271
:100560003D0280933E0204C020923E0280933D02F1
:100570000E944B026F83788789879A870E944B027B
:100580002B013C0120E030E04FE753E4F12CE12C5B
:1005900000E0D12C6F2D7E2D802F9D2D0E94760F97
:1005A000181694F020E030E04FE753EC6F2D7E2DCD
:1005B000802F9D2D0E94070D87FF0CC0312C1B8AB8
:1005C0005FE75C8B13EC0EC0312C1B8A8FE78C8BA2
:1005D00013E408C0F12CE12C00E0D12C3F2CEB8A75
:1005E0000C8B1D2DE4E64E1A5108610871080E941B
:1005F000FE07C501B4010E940C0D6B877C878D87B7
:100600009E8780912F02821509F40DC10E944B0232
:10061000DC01CB012F81388549855A85821B930BDC
:10062000A40BB50B80329E44A105B10548F080E3D0
:1006300091E00E94670988E191E00E946709F3C098
:100640000E94FE07C0902F020E944B024B015C01EA
:10065000DC01CB0184199509A609B70984369105F7
:10066000A105B10508F49CC06C2D70E080E090E01D
:100670000E940C0D69837A838B839C839B01AC0160
:100680006B857C858D859E850E94D30E6B017C01D8
:100690002F85388949895A8969817A818B819C8122
:1006A0000E94D30E2B013C0120E030E040E05FE3EC
:1006B000C701B6010E946D0D9B01AC01632D7B89C2
:1006C0008C89912F0E94D40E362E7B8B8C8B192F08
:1006D00020E030E04FE753E40E94760F181694F0C4
:1006E00020E030E04FE753EC632D7B898C89912F1C
:1006F0000E94070D87FF0BC0312C1B8A4FE74C8BE4
:1007000013EC05C0312C1B8A5FE75C8B13E420E0FF
:1007100030E040EA51E4C301B2010E946D0D9B013B
:10072000AC01632D7B898C89912F0E94D30E2B0104
:100730003C01A7019601C701B6010E94D40EA30196
:1007400092010E94D40EF62EE72E082FD92E20E01B
:1007500030E04FE753E40E94760F181694F020E043
:1007600030E04FE753EC6F2D7E2D802F9D2D0E94A2
:10077000070D87FF0BC0F12CE12C0FE733ECD32ED4
:1007800005C0F12CE12C0FE723E4D22E89818F875D
:10079000EA81E88BFB81F98B2C812A8B24013501BE
:1007A00020E030E0A9016F2D7E2D802F9D2D0E942D
:1007B000070D87FF0CC020E030E046E952EC6F2DBA
:1007C0007E2D802F9D2D0E94760F1816ECF020E0D4
:1007D00030E0A9016F2D7E2D802F9D2D0E94760F78
:1007E0001816BCF420E030E046E952E46F2D7E2D6F
:1007F000802F9D2D0E94070D87FF0BC0F12CE12C4F
:1008000006E982E4D82E05C0F12CE12C06E992EC31
:10081000D92E6F2D7E2D802F9D2D0E94400FCB0154
:100820000E947A08EECE0E945F083D8130933D021F
:100830004E8140933E0264960FB6F894DEBF0FBE21
:10084000CDBFDF91CF911F910F91FF90EF90DF907F
:10085000CF90BF90AF909F908F907F906F905F9060
:100860004F903F902F900895CF93DF93BC0180E08D
:1008700090E04AE00E947909EC0188E191E00E9451
:1008800067098C0F9D1FDF91CF9108950E946F1310
:100890000F931F93CF93DF93EC0188819981009789
:1008A00029F02A813B812617370788F48B016F5F77
:1008B0007F4F0E94A512009761F0998388831B8364
:1008C0000A832C813D81232B11F4FC01108281E0ED
:1008D00001C080E0DF91CF911F910F910895EF92B9
:1008E000FF920F931F93CF93DF93EC017B018A015B
:1008F000BA010E9448042881398181110DC0211557
:10090000310519F0C9010E940D12198218821D8249
:100910001C821B821A8206C01D830C83B701C90189
:100920000E947D13CE01DF91CF911F910F91FF9017
:10093000EF900895CF92DF92EF92FF920F931F9363
:10094000CF93DF93CDB7DEB72C970FB6F894DEBF09
:100950000FBECDBF18861F821A8619861C861B867D
:1009600040E050E06AE171E0CE0107960E946F041A
:1009700065E070E0CE0107960E94480440E050E038
:100980006AE171E0CE0107960E946F049DE6C92ED0
:1009900091E0D92E10E0F60181916F018F32F1F0D4
:1009A00089831A82EB84FC84FFEFEF1AFF0AB701F8
:1009B000CE0107960E944804882369F02F8138856C
:1009C0008B859C85BE016F5F7F4F820F931F0E94B6
:1009D0007D13FC86EB861F5F1630E9F6812F90E0D1
:1009E00082599E4F9F938F938DE691E09F938F93B3
:1009F0000E9484130B851C85015011090F900F90E4
:100A00000F900F9029F4E12CF12C01E010E003C0CD
:100A1000EE24E394F12C1A8219821C821B821E821E
:100A20001D8240E050E06AE171E0CE0101960E9433
:100A30006F048B859C85E816F90680F58017910771
:100A400008F48C01EF81F885E00FF11FD08010824F
:100A50006F8178856E0D7F1D6115710569F0FB0151
:100A600001900020E9F73197AF01461B570BCE01EB
:100A700001960E946F040CC089819A81009711F041
:100A80000E940D121A8219821E821D821C821B82F4
:100A90008F819885FC01E00FF11FD0828F819885AE
:100AA0000097A9F069817A816115710571F0498516
:100AB0005A852D813E814217530738F00E947D13DD
:100AC0008D819E819C878B8712C00E940D12898127
:100AD0009A8198878F838B819C819A8789878D8162
:100AE0009E819C878B871A8219821C821B821E82A0
:100AF0001D8289819A810E940D120F81188501152E
:100B0000110531F0C8010E94CB0C6B017C0103C0C0
:100B1000C12CD12C7601C8010E940D12C701B6016B
:100B20002C960FB6F894DEBF0FBECDBFDF91CF91EC
:100B30001F910F91FF90EF90DF90CF900895CF928B
:100B4000DF92EF92FF920F931F93CF93DF93CDE647
:100B5000D1E008E311E0EC2E88E1E80E85E891E0B1
:100B60000E948201892B09F4E0C085E891E00E948F
:100B700060018A3071F480916D01882309F4B1C05D
:100B8000FE0101900020E9F73197ED56F14080E039
:100B90001FC0282F082E000C330B3F938F93DF9339
:100BA000CF931F930F93DF93CF930E948413FE0183
:100BB00001900020E9F78DB79EB708960FB6F8941C
:100BC0009EBF0FBE8DBFE558F14041F6D4CF8F5F79
:100BD000682F70E0E617F70708F483C0DB01A3591C
:100BE000BE4F9C919B3799F780E001C08F5F482FE3
:100BF00050E0E417F50708F474C0DA01A359BE4FBA
:100C00009C919D3799F7CB0180959095480F591F7E
:100C100062597E4F8EE391E00E9474136EE371E09F
:100C20008DE691E00E947D1320E0FE0101900020FE
:100C3000E9F73197ED56F140822F90E08E179F072C
:100C400030F4FC01E25CFE4F10822F5FEECF0E9479
:100C50009A046230710581059105C1F06330710518
:100C60008105910521F16130710581059105C9F575
:100C70000E949A04D62E0E949A04F62E81E0D81281
:100C800030C00E94F207813061F531C00E949A04A1
:100C900070936401609363010E949A0460936501FC
:100CA0007093660180936701909368011AC00E9457
:100CB0009A046130B1F40E949A04F62E8FEF8F0DE2
:100CC000843008F0F12CC0904002D12CC6010E9463
:100CD0002B0EF81621F06F2DC6010E94330EF092F4
:100CE0003F02EDE6F1E01192EE12FDCF37CF2091F9
:100CF0003C0230E02F193109F7FC339537FF03C070
:100D0000319521953109233031055CF3F0923C0295
:100D10008F2D0E94640280912F029BEF980F909379
:100D20003E028B5F80933D02DCCFDF91CF911F911C
:100D30000F91FF90EF90DF90CF9008950E948E0169
:100D400081110C949F0508951F920F920FB60F9278
:100D500011242F933F934F935F936F937F938F93C0
:100D60009F93AF93BF93EF93FF9385E891E00E9429
:100D70009801FF91EF91BF91AF919F918F917F91DA
:100D80006F915F914F913F912F910F900FBE0F90F8
:100D90001F9018951F920F920FB60F9211242F9348
:100DA0008F939F93EF93FF93E0919501F0919601BC
:100DB0008081E0919B01F0919C0182FD12C09081A5
:100DC00080919E018F5F8F7320919F01821751F058
:100DD000E0919E01F0E0EB57FE4F958F80939E01CE
:100DE00001C08081FF91EF919F918F912F910F9082
:100DF0000FBE0F901F901895CF93DF93282F30E0F0
:100E0000F901EB56FE4F8491F901E25EFE4FD49159
:100E1000F901E65FFE4FC491CC2391F081110E944D
:100E20002202EC2FF0E0EE0FFF1FE050FF4FA591E4
:100E3000B491EC91ED2381E090E021F480E002C0D8
:100E400080E090E0DF91CF9108951F93CF93DF93DF
:100E5000282F30E0F901EB56FE4F8491F901E25E54
:100E6000FE4FD491F901E65FFE4FC491CC23C9F047
:100E7000162F81110E942202EC2FF0E0EE0FFF1FCF
:100E8000EA50FF4FA591B4918FB7F894111105C0A6
:100E90009C91ED2FE095E92302C0EC91ED2BEC93B2
:100EA0008FBFDF91CF911F910895CF93DF9390E093
:100EB000FC01E25EFE4F2491FC01E65FFE4F84914F
:100EC000882361F190E0880F991FFC01E451FF4FE6
:100ED000C591D491FC01EA50FF4FA591B4916111E5
:100EE00009C09FB7F8948881209582238883EC916C
:100EF0002E230BC0623061F49FB7F8943881822FA3
:100F0000809583238883EC912E2B2C939FBF06C062
:100F10008FB7F894E8812E2B28838FBFDF91CF9174
:100F200008958E3008F08E508770806480937C0026
:100F300080917A00806480937A0080917A0086FDA7
:100F4000FCCF809178002091790090E0922B089559
:100F50001F920F920FB60F9211242F933F938F93EE
:100F60009F93AF93BF9380915B0190915C01A0919F
:100F70005D01B0915E0130915A0123E0230F2D37BE
:100F800020F40196A11DB11D05C026E8230F02968D
:100F9000A11DB11D20935A0180935B0190935C01C8
:100FA000A0935D01B0935E0180915601909157012D
:100FB000A0915801B09159010196A11DB11D8093D6
:100FC000560190935701A0935801B0935901BF91D6
:100FD000AF919F918F913F912F910F900FBE0F90E6
:100FE0001F901895CF93DF93C2E2D2E08E8D90E0F0
:100FF0000E942B0E8D8FDF91CF910895CF92DF92BB
:10100000EF92FF920F931F93809128020E94910705
:1010100090932E0280932D02C0902B02D0902C0230
:10102000E12CF12CA0E0B0E09C01AD012C193D09B0
:101030004E095F09A4E6B0E00E94600E20912902EB
:1010400030912A02890120E030E0A90198012C1991
:101050003D094E095F090E94410E57FD07C0253624
:1010600031054105510524F4822F03C080E001C001
:1010700084E680932F021F910F91FF90EF90DF90F5
:10108000CF900895CF93DF930E94FE07C2E2D2E093
:101090008E850E949107988B8F8789890E9491077E
:1010A0009B8B8A8B8C890E94FC069E8B8D8B8F89F3
:1010B0000E94FC06998F888FDF91CF9108951F932E
:1010C000CF93DF93C2E2D2E01C821B821A8161E0DF
:1010D000812F0E94550760E0812F0E94250760E064
:1010E00089810E94250760E08881DF91CF911F915F
:1010F0000C942507CF92DF92FF920F931F93CF930B
:10110000DF93EC010E944208D7FF38C0809137027C
:1011100090913802019779F020912D0230912E02A2
:1011200080912B0290912C022817390720F0809192
:101130002F02811109C0DF91CF911F910F91FF9074
:10114000DF90CF900C945F08C1308FEFD80714F474
:10115000C1E0DFEFD195C195D109809127028823A5
:1011600031F010922702109226021092250260E0C0
:10117000809122020E94250761E02CC080913A02F2
:1011800090913B020197B9F220912D0230912E02ED
:1011900080912B0290912C028217930760F280912C
:1011A0002F02843640F680912702811107C081E02A
:1011B000809327021092260210922502CF3FD1057C
:1011C00019F014F0CFEFD0E061E0809122020E948C
:1011D000250760E0809123020E9425078091250267
:1011E000909126028C179D0761F4D0932602C0933C
:1011F0002502DF91CF911F910F91FF90DF90CF904B
:10120000089500E010E08BECC82E87E0D82E0C1774
:101210001D0759F3F090240261E08F2D0E945507BD
:101220000115110509F447C00F3F110509F445C028
:10123000EF2DF0E0EB56FE4FE491E330F9F048F487
:10124000E130B9F0E230A1F584B5806284BD08BD1B
:1012500038C0E730E9F0E83019F1E43049F5809121
:10126000800080628093800010938B0000938A003E
:1012700028C084B5806884BD07BD23C080918000EC
:10128000806880938000109389000093880019C0C3
:101290008091B00080688093B0000093B30011C0CB
:1012A0008091B00080628093B0000093B40009C0C8
:1012B0000038110514F460E001C061E08F2D0E9438
:1012C0002507C6010197F1F70F5F1F4FA0CF0097C9
:1012D00069F0FC0101900020E9F73197AF01481B4C
:1012E000590BBC0185E891E00C94220180E090E06C
:1012F00008958F929F92AF92BF920F931F93CF93B7
:10130000DF93CDB7DEB7A1970FB6F894DEBF0FBE5F
:10131000CDBF19A2423008F44AE08E010F5D1F4F85
:10132000842E912CA12CB12CA50194010E94A20E17
:10133000E62FB901CA0101501109EA3014F4E05D49
:1013400001C0E95CD801EC93232B242B252B61F7FA
:10135000C8010E946709A1960FB6F894DEBF0FBEC0
:10136000CDBFDF91CF911F910F91BF90AF909F9014
:101370008F900895CF93DF93CDB7DEB764970FB604
:10138000F894DEBF0FBECDBF789484B5826084BD73
:1013900084B5816084BD85B5826085BD85B5816079
:1013A00085BD80916E00816080936E0010928100F7
:1013B00080918100826080938100809181008160B2
:1013C0008093810080918000816080938000809173
:1013D000B10084608093B1008091B00081608093FF
:1013E000B00080917A00846080937A0080917A00C6
:1013F000826080937A0080917A00816080937A0085
:1014000080917A00806880937A001092C1001092D7
:101410006D01E0919501F091960182E08083E09169
:101420009101F09192011082E0919301F091940169
:101430008FEC808310929D01E0919901F0919A01C7
:1014400086E08083E0919701F0919801808180612E
:101450008083E0919701F09198018081886080837A
:10146000E0919701F0919801808180688083E091FC
:101470009701F091980180818F7D80838DE080932A
:1014800022028CE08093230289E08093240282E18F
:10149000809328028EE690E090932C0280932B029A
:1014A00089EB92E090932A028093290285E0809351
:1014B000360284E08093390280E18093300281E13A
:1014C000809333020E94F20780933F0281E0809371
:1014D0002702109226021092250261E080912202DA
:1014E0000E94550761E0809123020E94550761E048
:1014F000809124020E94550760E0809136020E948C
:10150000550760E0809139020E9455070E944B0206
:1015100069837A838B839C838091690190916A01AE
:10152000A0916B01B0916C0129813A814B815C8162
:10153000281B390B4A0B5B0B2A303105410551053D
:1015400008F494C189819A81AB81BC81809369013F
:1015500090936A01A0936B01B0936C010E944208C2
:101560000E94F207823009F43FC1833009F07EC146
:1015700020916501309166014091670150916801A9
:101580002D833E834F83588760916301709164017E
:1015900080E090E00E940C0D6B017C0120E030E0C7
:1015A00040EA50E40E947B0F2B013C0120E030E038
:1015B00040E850E4C701B6010E947B0F69877A8733
:1015C0008B879C8720E030E040E450E4C701B601FF
:1015D0000E947B0F6D877E878F87988BA70196016E
:1015E000C701B6010E946D0D698B7A8B8B8B9C8B2A
:1015F00028E03DEB41E053E3C301B2010E946D0DD1
:101600004B015C0120E938E246EA57E369857A85B7
:101610008B859C850E946D0D9B01AC01C501B401B9
:101620000E94D30E4B015C012CE53BE94BE65BE3EA
:101630006D857E858F8598890E946D0D9B01AC011B
:10164000C501B4010E94D40E4B015C0129ED3AEFB3
:1016500049E85EE369897A898B899C890E946D0DCE
:101660009B01AC01C501B4010E94D30E4B015C018A
:1016700021EB34E141E452E4C701B6010E946D0D53
:101680009B01AC01C501B4010E94D40E23EF3AE7DF
:101690004BE956E40E94D40E0E94470F4B015C01B7
:1016A0008D819E81AF81B88588159905AA05BB05F6
:1016B00008F4DBC02FEA3EE942E353E3C301B20181
:1016C0000E946D0D2B013C012EE33BE443E358E304
:1016D00069857A858B859C850E946D0D9B01AC0187
:1016E000C301B2010E94D30E2B013C0127EE3FE261
:1016F0004FE75CE36D857E858F8598890E946D0D2F
:101700009B01AC01C301B2010E94D40E2B013C012C
:1017100027EA3CEB4AE050E469897A898B899C8905
:101720000E946D0D9B01AC01C301B2010E94D30E5A
:101730002B013C0123E930EB4AE652E4C701B60134
:101740000E946D0D9B01AC01C301B2010E94D40E39
:101750002EE131E747E857E40E94D40E0E94470F7C
:101760006B017C012D813E814F8158856217730783
:101770008407950708F479C0281939094A095B09D3
:10178000A4E6B0E00E94600EA7019601281939096D
:101790004A095B090E94A20E253631054105510513
:1017A00010F4122F03C01F3F09F460C080913C0267
:1017B00090E0811B910917FD939597FF03C09195C8
:1017C0008195910903970CF451C010933C02812F2D
:1017D0000E94640280912F029BEF980F90933E022B
:1017E0008B5F80933D0242C00E944208E090340229
:1017F000F09035028091310290913202E81AF90A94
:10180000C7010496099718F40E945F082FC03EECA8
:10181000E3163FEFF3061CF48FEF90E023C0C701FF
:10182000C196489718F486E990E01CC0C701489615
:10183000489718F484E690E015C0C70101974897CF
:1018400020F48CE99FEF0E947A08C7014A974897D5
:1018500018F48AE69FEF06C043E3E416F10434F07F
:1018600081E09FEF0E947A0801C01FEF80915F0125
:1018700090916001A0916101B091620129813A814A
:101880004B815C81281B390B4A0B5B0BDA01C901C8
:10189000883E9340A105B10508F44BC089819A8127
:1018A000AB81BC8180935F0190936001A093610143
:1018B000B09362010E9457028AE891E00E94000101
:1018C00060912F0270E080E090E04AE00E94790988
:1018D00088E191E00E94670982E791E00E9400019F
:1018E00080913102909132020E9434048BE591E0A4
:1018F0000E94000180913402909135020E943404CC
:101900008FE391E00E9400016091370270913802EC
:1019100080E090E04AE00E94790982E391E00E9431
:10192000000180913A0290913B020E9434040E948F
:1019300057020E949E06EACDE5E8F1E0138212828A
:1019400088EE93E0A0E0B0E084839583A683B7831C
:101950008AE091E09183808385EC90E0958784878D
:1019600084EC90E09787868780EC90E0918B808B69
:1019700081EC90E0938B828B82EC90E0958B848B52
:1019800086EC90E0978B868B118E128E138E148EC0
:101990001092400208951F93FC0199278827BC01EB
:1019A000E89411911032E9F3193010F01E30C8F3A9
:1019B0001B3251F01D3249F4689406C00E94F20CAB
:1019C000610F711D811D911D119110531A30B0F3DB
:1019D0003EF490958095709561957F4F8F4F9F4F06
:1019E0001F910895592F482F372F262F660F771FE5
:1019F000881F991F660F771F881F991F620F731F1B
:101A0000841F951F660F771F881F991F08950E94D6
:101A1000490D08F481E00895E89409C097FB3EF46D
:101A200090958095709561957F4F8F4F9F4F99232B
:101A3000A9F0F92F96E9BB279395F69587957795A9
:101A40006795B795F111F8CFFAF4BB0F11F460FF69
:101A50001BC06F5F7F4F8F4F9F4F16C0882311F0C1
:101A600096E911C0772321F09EE8872F762F05C0D5
:101A7000662371F096E8862F70E060E02AF09A9570
:101A8000660F771F881FDAF7880F9695879597F965
:101A90000895990F0008550FAA0BE0E8FEEF1616FF
:101AA0001706E807F907C0F012161306E407F50752
:101AB00098F0621B730B840B950B39F40A2661F0C6
:101AC000232B242B252B21F408950A2609F4A14069
:101AD000A6958FEF811D811D08950E94800D0C94A5
:101AE000F10D0E94E30D38F00E94EA0D20F09523DD
:101AF00011F00C94DA0D0C94E00D11240C94250EC9
:101B00000E94020E70F3959FC1F3950F50E0551F90
:101B1000629FF001729FBB27F00DB11D639FAA2742
:101B2000F00DB11DAA1F649F6627B00DA11D661F91
:101B3000829F2227B00DA11D621F739FB00DA11DB2
:101B4000621F839FA00D611D221F749F3327A00D6C
:101B5000611D231F849F600D211D822F762F6A2F08
:101B600011249F5750409AF0F1F088234AF0EE0F6D
:101B7000FF1FBB1F661F771F881F91505040A9F79A
:101B80009E3F510580F00C94DA0D0C94250E5F3FBA
:101B9000E4F3983ED4F3869577956795B795F795D6
:101BA000E7959F5FC1F7FE2B880F911D969587954E
:101BB00097F9089597F99F6780E870E060E00895CD
:101BC0009FEF80EC089500240A9416161706180655
:101BD0000906089500240A94121613061406050631
:101BE0000895092E0394000C11F4882352F0BB0FC2
:101BF00040F4BF2B11F460FF04C06F5F7F4F8F4F25
:101C00009F4F089557FD9058440F551F59F05F3F5F
:101C100071F04795880F97FB991F61F09F3F79F00E
:101C200087950895121613061406551FF2CF469590
:101C3000F1DF08C0161617061806991FF1CF869512
:101C40007105610508940895E894BB2766277727F6
:101C5000CB0197F90895F999FECF92BD81BDF89A0D
:101C6000992780B50895262FF999FECF1FBA92BD06
:101C700081BD20BD0FB6F894FA9AF99A0FBE01966D
:101C80000895052E97FB1EF400940E94580E57FDF0
:101C900007D00E94A20E07FC03D04EF40C94580EFD
:101CA00050954095309521953F4F4F4F5F4F089588
:101CB00090958095709561957F4F8F4F9F4F0895B8
:101CC0000E94C40EA59F900DB49F900DA49F800DFF
:101CD000911D112408952F923F924F925F926F921F
:101CE0007F928F929F92AF92BF92CF92DF92EF92AC
:101CF000FF920F931F93CF93DF93CDB7DEB7CA1B2D
:101D0000DB0B0FB6F894DEBF0FBECDBF09942A8857
:101D1000398848885F846E847D848C849B84AA84FF
:101D2000B984C884DF80EE80FD800C811B81AA818C
:101D3000B981CE0FD11D0FB6F894DEBF0FBECDBF57
:101D4000ED010895A1E21A2EAA1BBB1BFD010DC0D7
:101D5000AA1FBB1FEE1FFF1FA217B307E407F5075B
:101D600020F0A21BB30BE40BF50B661F771F881F37
:101D7000991F1A9469F760957095809590959B01CD
:101D8000AC01BD01CF010895A29FB001B39FC00176
:101D9000A39F700D811D1124911DB29F700D811D97
:101DA0001124911D08955058BB27AA270E94EB0EBD
:101DB0000C94F10D0E94E30D38F00E94EA0D20F022
:101DC00039F49F3F19F426F40C94E00D0EF4E095DD
:101DD000E7FB0C94DA0DE92F0E94020E58F3BA17B4
:101DE000620773078407950720F079F4A6F50C9431
:101DF000240E0EF4E0950B2EBA2FA02D0B01B90185
:101E000090010C01CA01A0011124FF27591B99F070
:101E1000593F50F4503E68F11A16F040A22F232F7C
:101E2000342F4427585FF3CF469537952795A795CC
:101E3000F0405395C9F77EF41F16BA0B620B730B73
:101E4000840BBAF09150A1F0FF0FBB1F661F771FE4
:101E5000881FC2F70EC0BA0F621F731F841F48F499
:101E6000879577956795B795F7959E3F08F0B0CF22
:101E70009395880F08F09927EE0F97958795089509
:101E80000E94470F6894B1110C94250E08950E948A
:101E90000A0E88F09F5798F0B92F9927B751B0F0E4
:101EA000E1F0660F771F881F991F1AF0BA95C9F7DE
:101EB00014C0B13091F00E94240EB1E008950C944A
:101EC000240E672F782F8827B85F39F0B93FCCF3FD
:101ED000869577956795B395D9F73EF4909580955B
:101EE000709561957F4F8F4F9F4F08950E94490DC8
:101EF00008F48FEF0895FA01EE0FFF1F30962105C9
:101F00003105A1F16115710561F48038BFE39B07CC
:101F100049F168949038810561F08038BFEF9B07E4
:101F200041F099234AF5FF3FE1053105210519F1FB
:101F3000E8940894E795D901AA2329F4AB2FBE2F82
:101F4000F85FD0F310C0FF5F70F4A695E0F7F739A3
:101F500050F019F0FF3A38F49F779F930DD00F900F
:101F600007FC9058089546F00C94E00D60E070E096
:101F700080E89FE308954FE79F775F934F933F93E8
:101F80002F930E9476102F913F914F915F910E9465
:101F90006D0D0C94D30F29F416F00C94DA0D0C94FB
:101FA000240E0C94E00D0E940A0EA8F39638A0F7B8
:101FB00007F80F92E8942BE33AEA48EB5FE70E94B8
:101FC000830D0F920F920F924DB75EB70F920E9442
:101FD000BE10E8E6F0E00E9405104F915F91EF918E
:101FE000FF91E595EE1FFF1F49F0FE57E06844277B
:101FF000EE0F441FFA95E1F74195550B0E943810FA
:102000000F9007FE0C942C100895DF93CF931F932D
:102010000F93FF92EF92DF927B018C01689406C0D0
:10202000DA2EEF010E94800DFE01E894A591259122
:10203000359145915591A6F3EF010E94EB0EFE01FB
:102040009701A801DA9469F7DF90EF90FF900F9164
:102050001F91CF91DF9108959B01AC0160E070E08A
:1020600080E89FE30C94F2100C94DA0D0C94641148
:102070000E940A0ED8F39923C9F3940F511DA3F3BC
:102080009150504094F059F0882332F0660F771F3A
:10209000881F91505040C1F79E3F51052CF7880F83
:1020A000911D9695879597F908955F3FACF0983EFE
:1020B0009CF0BB27869577956795B79508F4B16036
:1020C0009395C1F7BB0F58F711F460FFE8CF6F5F2E
:1020D0007F4F8F4F9F4FE3CF0C94250E16F00C943B
:1020E00064110C94E00D68940C94DA0D0E940A0EB1
:1020F000A8F39923C1F3AEF3DF93CF931F930F930C
:10210000FF92C92FDD2788232AF02197660F771FBA
:10211000881FDAF720E030E040E85FEB9FE3883982
:1021200020F0803E38F021968F770E94D40EE0E9AF
:10213000F0E004C00E94D40EEDEBF0E00E94051028
:102140008B01BE01EC01FB2E6F5771097595771F4E
:10215000880B990B0E940E0D28E132E741E35FE303
:102160000E94800DAF2D9801AE01FF900F911F913D
:10217000CF91DF910E94EB0E0C94F10DFA01DC017E
:10218000AA0FBB1F9B01AC01BF5728F4222733279E
:102190004427507820C0B75190F4AB2F00244695C7
:1021A00037952795011CA395D2F3002071F0220FDB
:1021B000331F441FB395DAF30ED00C94D30E613065
:1021C0007105A0E88A07B94630F49B01AC01662787
:1021D000772788279078309621F0208331834283B7
:1021E000538308950E9406110C94F10D0E94EA0D8C
:1021F00058F00E94E30D40F029F45F3F29F00C9461
:10220000DA0D51110C94250E0C94E00D0E94020E73
:1022100068F39923B1F3552391F3951B550BBB2715
:10222000AA2762177307840738F09F5F5F4F220F5A
:10223000331F441FAA1FA9F335D00E2E3AF0E0E851
:1022400032D091505040E695001CCAF72BD0FE2F9B
:1022500029D0660F771F881FBB1F2617370748072F
:10226000AB07B0E809F0BB0B802DBF01FF279358E7
:102270005F4F3AF09E3F510578F00C94DA0D0C94C4
:10228000250E5F3FE4F3983ED4F3869577956795E6
:10229000B795F7959F5FC9F7880F911D969587951C
:1022A00097F90895E1E0660F771F881FBB1F62173B
:1022B00073078407BA0720F0621B730B840BBA0BF9
:1022C000EE1F88F7E09508959F3F31F0915020F47C
:1022D000879577956795B795880F911D9695879502
:1022E00097F90895EE0FFF1F0590F491E02D0994E2
:1022F000CF93DF938230910510F482E090E0E0917B
:102300004302F091440220E030E0C0E0D0E030979A
:1023100011F14081518148175907C0F048175907FA
:1023200061F482819381209719F09B838A832BC06B
:10233000909344028093430226C02115310519F081
:102340004217530718F49A01BE01DF01EF01028022
:10235000F381E02DDCCF2115310509F1281B390B64
:102360002430310590F412968D919C91139761154C
:10237000710521F0FB019383828304C09093440292
:1023800080934302FD01329644C0FD01E20FF31F2A
:1023900081939193225031092D933C933AC020911F
:1023A000410230914202232B41F4209102013091ED
:1023B00003013093420220934102209100013091A9
:1023C00001012115310541F42DB73EB740910401BB
:1023D00050910501241B350BE0914102F09142021E
:1023E000E217F307A0F42E1B3F0B2817390778F0EC
:1023F000AC014E5F5F4F2417350748F04E0F5F1F4B
:1024000050934202409341028193919302C0E0E0D5
:10241000F0E0CF01DF91CF9108950F931F93CF93F9
:10242000DF93009709F48CC0FC013297138212826B
:1024300000914302109144020115110581F420819D
:102440003181820F931F209141023091420228175F
:10245000390779F5F0934202E093410271C0D80147
:1024600040E050E0AE17BF0750F412962D913C911A
:102470001397AD012115310509F1D901F3CF9D0164
:10248000DA013383228360817181860F971F82175F
:10249000930769F4EC0128813981260F371F2E5FDD
:1024A0003F4F318320838A819B8193838283452B95
:1024B00029F4F0934402E093430242C01396FC9344
:1024C000EE931297ED01499159919E01240F351F0A
:1024D000E217F30771F480819181840F951F0296B2
:1024E00011969C938E938281938113969C938E93E5
:1024F0001297E0E0F0E0D80112968D919C9113972D
:10250000009719F0F8018C01F6CF8D919C919801FC
:102510002E5F3F4F820F931F209141023091420264
:102520002817390769F4309729F410924402109261
:10253000430202C0138212821093420200934102AE
:10254000DF91CF911F910F910895A0E0B0E0EBEAE9
:10255000F2E10C946F0EEC01009721F4CB010E9484
:102560007811B8C0FC01E60FF71F9C012250310919
:10257000E217F30708F4ACC0D9010D911C91119733
:1025800006171707B0F00530110508F49FC0C80101
:1025900004978617970708F499C002501109061B83
:1025A000170B019311936D937C93CF010E940D1231
:1025B0008DC05B01A01AB10A4C01800E911EA09142
:1025C0004302B091440240E050E0E12CF12C10971E
:1025D00009F44AC0A815B905D1F56D907C90119702
:1025E000630182E0C80ED11CCA14DB0480F1A30190
:1025F0004A195B096A0182E0C80ED11C1296BC9090
:1026000012971396AC91B5E0CB16D10440F0B2828C
:10261000A38351834083D9016D937C930AC00E5FDD
:102620001F4FC301800F911FF90191838083EB2D10
:10263000FA2FE114F10431F0D7011396FC93EE93D5
:10264000129744C0F0934402E09343023FC08D913F
:102650009C9111974817590708F4AC017D01129617
:102660000D90BC91A02DB3CF809141029091420278
:1026700088159905E1F446175707C8F480910001C1
:1026800090910101009741F48DB79EB740910401EC
:1026900050910501841B950BE817F907C8F4F093D6
:1026A0004202E0934102F901718360830FC0CB01C4
:1026B0000E9478117C01009759F0A801BE010E9488
:1026C0007413CE010E940D12C70104C0CE0102C0D6
:1026D00080E090E0CDB7DEB7EEE00C948B0E81E0A9
:1026E00090E0F8940C942516FB01DC0102C00190E7
:1026F0000D9241505040D8F70895FB01DC01019044
:102700000D920020E1F70895AEE0B0E0EAE8F3E1D1
:102710000C94790E0D891E8986E08C831A830983B7
:102720008FEF9FE79E838D83AE01475E5F4F6F897A
:10273000788DCE0101960E94A7132F813885F8016C
:10274000E20FF31F10822E96E4E00C94950EACE09D
:10275000B0E0EDEAF3E10C946B0E7C016B018A01B1
:10276000FC0117821682838181FFBDC1CE010196D3
:102770004C01F7019381F60193FD859193FF8191BF
:102780006F01882309F4ABC1853239F493FD85913B
:1027900093FF81916F01853229F4B70190E00E9487
:1027A0008F15E7CF512C312C20E02032A0F48B3252
:1027B00069F030F4803259F0833269F420612CC022
:1027C0008D3239F0803339F4216026C022602460D4
:1027D00023C0286021C027FD27C030ED380F3A30D4
:1027E00078F426FF06C0FAE05F9E300D1124532EC8
:1027F00013C08AE0389E300D1124332E20620CC0A5
:102800008E3221F426FD6BC1206406C08C3611F493
:10281000206802C0883641F4F60193FD859193FF4C
:1028200081916F018111C1CF982F9F7D9554933075
:1028300028F40C5F1F4FFFE3F9830DC0833631F09E
:10284000833771F0833509F05BC022C0F8018081C5
:1028500089830E5F1F4F44244394512C540115C0AB
:102860003801F2E06F0E711CF801A080B18026FFE4
:1028700003C0652D70E002C06FEF7FEFC5012C87AC
:102880000E9484152C0183012C852F77222E17C0DE
:102890003801F2E06F0E711CF801A080B18026FFB4
:1028A00003C0652D70E002C06FEF7FEFC5012C877C
:1028B0000E9479152C012C852068222E830123FC8F
:1028C0001BC0832D90E048165906B0F4B70180E292
:1028D00090E00E948F153A94F4CFF50127FC859182
:1028E00027FE81915F01B70190E00E948F153110A2
:1028F0003A94F1E04F1A51084114510471F7E5C0C0
:10290000843611F0893639F5F80127FF07C0608158
:102910007181828193810C5F1F4F08C0608171813A
:10292000072E000C880B990B0E5F1F4F2F76722E0F
:1029300097FF09C090958095709561957F4F8F4F57
:102940009F4F2068722E2AE030E0A4010E94C71534
:10295000A82EA81844C0853729F42F7EB22E2AE06D
:1029600030E025C0F22FF97FBF2E8F36C1F018F46A
:10297000883579F0B4C0803719F0883721F0AFC0BE
:102980002F2F2061B22EB4FE0DC08B2D8460B82E87
:1029900009C024FF0AC09F2F9660B92E06C028E008
:1029A00030E005C020E130E002C020E132E0F80173
:1029B000B7FE07C060817181828193810C5F1F4FD8
:1029C00006C06081718180E090E00E5F1F4FA4011E
:1029D0000E94C715A82EA818FB2DFF777F2E76FE24
:1029E0000BC0372D3E7FA51450F474FE0AC072FC54
:1029F00008C0372D3E7E05C0BA2C372D03C0BA2C37
:102A000001C0B52C34FF0DC0FE01EA0DF11D80811F
:102A1000803311F4397E09C032FF06C0B394B394F9
:102A200004C0832F867809F0B39433FD13C030FFC0
:102A300006C05A2CB31418F4530C5B18B32CB314FF
:102A400068F4B70180E290E03C870E948F15B39450
:102A50003C85F5CFB31410F43B1801C0312C34FF82
:102A600012C0B70180E390E03C870E948F153C853F
:102A700032FF17C031FD03C088E790E002C088E54F
:102A800090E0B7010CC0832F867859F031FF02C067
:102A90008BE201C080E237FD8DE2B70190E00E9439
:102AA0008F15A51438F4B70180E390E00E948F15CC
:102AB0005A94F7CFAA94F401EA0DF11D8081B70171
:102AC00090E00E948F15A110F5CF332009F451CE6C
:102AD000B70180E290E00E948F153A94F6CFF7019B
:102AE0008681978102C08FEF9FEF2C96E2E10C94D4
:102AF000870EFC010590615070400110D8F7809559
:102B000090958E0F9F1F0895FC01615070400190B9
:102B10000110D8F7809590958E0F9F1F08950F9301
:102B20001F93CF93DF93FB01238121FD03C08FEF20
:102B30009FEF28C022FF16C046815781248135812E
:102B40004217530744F4A081B1819D012F5F3F4F8D
:102B5000318320838C93268137812F5F3F4F3783CA
:102B6000268310C0EB01092F182F0084F185E02D7A
:102B70000995892BE1F68E819F8101969F838E8333
:102B8000812F902FDF91CF911F910F910895FA011E
:102B9000AA27283051F1203181F1E8946F936E7F9C
:102BA0006E5F7F4F8F4F9F4FAF4FB1E03ED0B4E08D
:102BB0003CD0670F781F891F9A1FA11D680F791FCE
:102BC0008A1F911DA11D6A0F711D811D911DA11DDF
:102BD00020D009F468943F912AE0269F11243019EF
:102BE000305D3193DEF6CF010895462F4770405D8A
:102BF0004193B3E00FD0C9F7F6CF462F4F70405D39
:102C00004A3318F0495D31FD4052419302D0A9F793
:102C1000EACFB4E0A6959795879577956795BA958D
:102C2000C9F700976105710508959B01AC010A2E53
:102C300006945795479537952795BA95C9F7620F2A
:0E2C4000731F841F951FA01D0895F894FFCFE9
:102C4E0000004502800000000000B9012201510180
:102C5E0000028201600174010D0A004D6F7665203D
:102C6E0064653A20002520506172613A20002500EB
:0E2C7E0074696D654F75740025732563000041
:107E0000112484B714BE81FFF0D085E080938100F7
:107E100082E08093C00088E18093C10086E0809377
:107E2000C20080E18093C4008EE0C9D0259A86E02C
:107E300020E33CEF91E0309385002093840096BBD3
:107E4000B09BFECF1D9AA8958150A9F7CC24DD24C4
:107E500088248394B5E0AB2EA1E19A2EF3E0BF2EE7
:107E6000A2D0813461F49FD0082FAFD0023811F036
:107E7000013811F484E001C083E08DD089C08234E0
:107E800011F484E103C0853419F485E0A6D080C0E4
:107E9000853579F488D0E82EFF2485D0082F10E0AE
:107EA000102F00270E291F29000F111F8ED06801E7
:107EB0006FC0863521F484E090D080E0DECF843638
:107EC00009F040C070D06FD0082F6DD080E0C81688
:107ED00080E7D80618F4F601B7BEE895C0E0D1E017
:107EE00062D089930C17E1F7F0E0CF16F0E7DF06D8
:107EF00018F0F601B7BEE89568D007B600FCFDCFD4
:107F0000A601A0E0B1E02C9130E011968C91119780
:107F100090E0982F8827822B932B1296FA010C0160
:107F200087BEE89511244E5F5F4FF1E0A038BF0790
:107F300051F7F601A7BEE89507B600FCFDCF97BE46
:107F4000E89526C08437B1F42ED02DD0F82E2BD052
:107F50003CD0F601EF2C8F010F5F1F4F84911BD097
:107F6000EA94F801C1F70894C11CD11CFA94CF0C13
:107F7000D11C0EC0853739F428D08EE10CD085E9AC
:107F80000AD08FE07ACF813511F488E018D01DD067
:107F900080E101D065CF982F8091C00085FFFCCF94
:107FA0009093C60008958091C00087FFFCCF809118
:107FB000C00084FD01C0A8958091C6000895E0E648
:107FC000F0E098E1908380830895EDDF803219F02E
:107FD00088E0F5DFFFCF84E1DECF1F93182FE3DFCA
:107FE0001150E9F7F2DF1F91089580E0E8DFEE27F6
:047FF000FF270994CA
:027FFE00040479
:0400000300007E007B
:00000001FF
