:100000000C94D6000C94FE000C94FE000C94FE00A0
:100010000C94FE000C94FE000C94FE000C94FE0068
:100020000C94FE000C94FE000C94FE000C94FE0058
:100030000C94FE000C94FE000C94FE000C94FE0048
:100040000C94BE070C94FE000C94E0060C94BA06C7
:100050000C94FE000C94FE000C94FE000C94FE0028
:100060000C94FE000C94FE0007634236B79BD8A7A1
:100070001A39685618AEBAAB558C1D3CB7CC5763CD
:10008000BD6DEDFD753EF6177231BF000000803F7B
:1000900008000000BE922449123EABAAAA2ABECD97
:1000A000CCCC4C3E00000080BEABAAAAAA3E000009
:1000B0000000BF000000803F000000000008417801
:1000C000D3BB4387D1133D190E3CC3BD4282AD2B38
:1000D0003E68EC8276BED98FE1A93E4C80EFFFBE30
:1000E00001C4FF7F3F00000000002D000000000061
:1000F000240027002A0000000000250028002B0013
:100100000000000023002600290004040404040465
:1001100004040202020202020303030303030102B6
:100120000408102040800102040810200102040885
:1001300010202C2073756E736574202D3E200053A3
:1001400061666574792073656E736F72733A20739C
:10015000756E72697365202D3E20004C6967687466
:10016000206F6E2073756E73657420736964653AD1
:1001700020004C69676874206F6E2073756E726919
:10018000736520736964653A2000506F7369746900
:100190006F6E3A2000000000080002010000030416
:1001A00007000000000000000000050D11241FBE24
:1001B000CFEFD8E0DEBFCDBF11E0A0E0B1E0E0E7D7
:1001C000FDE202C005900D92AE33B107D9F722E0EF
:1001D000AEE3B1E001C01D92AA34B207E1F710E02E
:1001E000C6EDD0E004C02197FE010E940312C53D78
:1001F000D107C9F70E94070A0C94B6160C940000A8
:100200000F931F93CF93DF938C01C0E0D0E0F801F0
:10021000EC0FFD1F6491662371F0E0918901F0916C
:100220008A010190F081E02D89E891E00995892B00
:1002300011F02196ECCFCE01DF91CF911F910F915C
:1002400008950895CF92DF92EF92FF920F931F933C
:10025000CF93DF936C017A018B01C0E0D0E0CE1523
:10026000DF0589F0D8016D918D01D601ED91FC91EA
:100270000190F081E02DC6010995892B11F47E01D2
:1002800002C02196ECCFC701DF91CF911F910F9152
:10029000FF90EF90DF90CF900895089580E090E078
:1002A0000895FC01538D448D252F30E0842F90E07C
:1002B000821B930B541710F0CF9608950197089561
:1002C000FC01918D828D981761F0828DDF01A80F5E
:1002D000B11D5D968C91928D9F5F9F73928F90E080
:1002E00008958FEF9FEF0895FC01918D828D9817EF
:1002F00031F0828DE80FF11D858D90E008958FEF2C
:100300009FEF0895FC01918D228D892F90E0805CF4
:100310009F4F821B91098F739927089589E891E077
:100320000E94820121E0892B09F420E0822F0895A8
:10033000FC01848DDF01A80FB11DA35ABF4F2C9182
:10034000848D90E001968F739927848FA689B78951
:100350002C93A089B1898C9180648C93938D848D2A
:10036000981306C00288F389E02D80818F7D8083F9
:100370000895EF92FF920F931F93CF93DF93EC01B9
:1003800081E0888F9B8D8C8D981305C0E889F98951
:10039000808185FD24C0F62E0B8D10E00F5F1F4F6E
:1003A0000F731127E02E8C8DE8120CC00FB607FCDE
:1003B000FACFE889F989808185FFF5CFCE010E94C7
:1003C0009801F1CF8B8DFE01E80FF11DE35AFF4F2D
:1003D000F0820B8FEA89FB898081806207C0EE89F9
:1003E000FF896083E889F98980818064808381E066
:1003F00090E0DF91CF911F910F91FF90EF900895C2
:10040000CF93DF93EC01888D8823C9F0EA89FB89BB
:10041000808185FD05C0A889B9898C9186FD0FC0B2
:100420000FB607FCF5CF808185FFF2CFA889B98987
:100430008C9185FFEDCFCE010E949801E7CFDF912F
:10044000CF910895833081F028F4813099F0823083
:10045000A1F008958730A9F08830B9F08430D1F444
:10046000809180008F7D03C0809180008F77809382
:100470008000089584B58F7702C084B58F7D84BDD8
:1004800008958091B0008F7703C08091B0008F7D78
:100490008093B00008952FB7F89460915B0170913C
:1004A0005C0180915D0190915E012FBF0895CF9313
:1004B000CEE18AEE90E00E940001C150D1F788E1C0
:1004C00091E0CF910C948D092F923F924F925F92C1
:1004D0006F927F928F929F92AF92BF92CF92DF9254
:1004E000EF92FF920F931F93CF93DF93CDB7DEB7B9
:1004F00064970FB6F894DEBF0FBECDBF182F8536B8
:1005000008F014E6209143022E83309142023F838B
:100510008BE191E00E948D09609133027091340269
:10052000072E000C880B990B97FF03C00E94E0096F
:1005300003C04AE00E949F0985E291E00E948D0974
:10054000812E912CA12CB12C4AE0C501B4010E944E
:100550009F098EE291E00E948D0988E191E00E945E
:100560008D09412F50E05D834C838091330290913F
:100570003402841795072CF41093420280934302AF
:1005800004C010934302809342020E944B0268878A
:1005900079878A879B870E944B021B012C0120E0F0
:1005A00030E04FE753E4D12CC12C00E0712C6D2DCD
:1005B0007C2D802F972D0E94DF0F18169CF020E0D5
:1005C00030E04FE753EC6D2D7C2D802F972D0E944E
:1005D000700D87FF0EC0198210E05FE75C8B83EC23
:1005E0008B8B0FC0198210E09FE79C8BE3E4EB8BB1
:1005F00008C0D12CC12C00E0712CD9821C2D0C8B91
:100600007B8AF4E62F1A3108410851080E94140829
:10061000C501B4010E94750D6C877D878E879F8709
:1006200080913302909134022C813D81821793078F
:1006300009F410C10E944B02DC01CB0128853985E9
:100640004A855B85821B930BA40BB50B80329E44BD
:10065000A105B10548F080E391E00E948D0988E191
:1006600091E00E948D09F6C00E941408E0903302C8
:10067000F09034020E944B024B015C01DC01CB0183
:1006800082199309A409B50984369105A105B1051C
:1006900008F49DC0B701FF0C880B990B0E94770DE1
:1006A000362E272E8A839B83262F372FAC016C850D
:1006B0007D858E859F850E943C0F6B017C01262DD8
:1006C000388949895A89632D722D8A819B810E94BC
:1006D0003C0F2B013C0120E030E040E05FE3C7012C
:1006E000B6010E94D60D9B01AC016981712F8C89E6
:1006F0009B890E943D0F6983172F8C8B9B8B20E079
:1007000030E04FE753E40E94DF0F18169CF020E022
:1007100030E04FE753EC6981712F8C899B890E94EF
:10072000700D87FF0DC0198210E04FE74C8B53EC22
:100730005B8B06C0198210E08FE78C8B93E49B8B58
:1007400020E030E040EA51E4C301B2010E94D60D3E
:100750009B01AC016981712F8C899B890E943C0FA0
:100760002B013C01A7019601C701B6010E943D0F74
:10077000A30192010E943D0FD62EC72E082F792E7D
:1007800020E030E04FE753E40E94DF0F181694F0AA
:1007900020E030E04FE753EC6D2D7C2D802F972D1E
:1007A0000E94700D87FF0BC0D12CC12C0FE733ECDA
:1007B000732E05C0D12CC12C0FE723E4722E632CBD
:1007C000288AEA81E98BFB81FA8B1401250120E05C
:1007D00030E0A9016D2D7C2D802F972D0E94700D8A
:1007E00087FF0CC020E030E046E952EC6D2D7C2DF7
:1007F000802F972D0E94DF0F1816ECF020E030E0DC
:10080000A9016D2D7C2D802F972D0E94DF0F1816CA
:10081000BCF420E030E046E952E46D2D7C2D802FC1
:10082000972D0E94700D87FF0BC0D12CC12C06E9BB
:1008300082E4782E05C0D12CC12C06E992EC792EE9
:100840006D2D7C2D802F972D0E94A90FCB010E942A
:10085000A708E6CE0E948C083E81309342024F8169
:100860004093430264960FB6F894DEBF0FBECDBF2F
:10087000DF91CF911F910F91FF90EF90DF90CF907C
:10088000BF90AF909F908F907F906F905F904F90B0
:100890003F902F900895CF93DF93BC0180E090E0CC
:1008A0004AE00E949F09EC0188E191E00E948D09D5
:1008B0008C0F9D1FDF91CF9108950E9400140F931C
:1008C0001F93CF93DF93EC0188819981009729F0E2
:1008D0002A813B812617370788F48B016F5F7F4F92
:1008E0000E943613009761F0998388831B830A83E3
:1008F0002C813D81232B11F4FC01108281E001C089
:1009000080E0DF91CF911F910F910895EF92FF92B8
:100910000F931F93CF93DF93EC017B018A01BA0100
:100920000E945F042881398181110DC02115310594
:1009300019F0C9010E949E12198218821D821C8220
:100940001B821A8206C01D830C83B701C9010E9455
:100950000E14CE01DF91CF911F910F91FF90EF9078
:100960000895CF92DF92EF92FF920F931F93CF9350
:10097000DF93CDB7DEB72C970FB6F894DEBF0FBE6E
:10098000CDBF18861F821A8619861C861B8640E0FA
:1009900050E06AE171E0CE0107960E94860465E0AE
:1009A00070E0CE0107960E945F0440E050E06AE1EB
:1009B00071E0CE0107960E94860491E7C92E91E06E
:1009C000D92E10E0F60181916F018F32F1F0898309
:1009D0001A82EB84FC84FFEFEF1AFF0AB701CE0105
:1009E00007960E945F04882369F02F8138858B85E4
:1009F0009C85BE016F5F7F4F820F931F0E940E1474
:100A0000FC86EB861F5F1630E9F6812F90E08E584A
:100A10009E4F9F938F9381E791E09F938F930E94C6
:100A200015140B851C85015011090F900F900F9024
:100A30000F9029F4E12CF12C01E010E003C0EE242A
:100A4000E394F12C1A8219821C821B821E821D8261
:100A500040E050E06AE171E0CE0101960E94860418
:100A60008B859C85E816F90680F58017910708F4B8
:100A70008C01EF81F885E00FF11FD08010826F812B
:100A800078856E0D7F1D6115710569F0FB01019080
:100A90000020E9F73197AF01461B570BCE010196B5
:100AA0000E9486040CC089819A81009711F00E94EF
:100AB0009E121A8219821E821D821C821B828F81C5
:100AC0009885FC01E00FF11FD0828F8198850097F7
:100AD000A9F069817A816115710571F049855A859E
:100AE0002D813E814217530738F00E940E148D81EC
:100AF0009E819C878B8712C00E949E1289819A8159
:100B000098878F838B819C819A8789878D819E812D
:100B10009C878B871A8219821C821B821E821D82EF
:100B200089819A810E949E120F81188501151105F5
:100B300031F0C8010E94340D6B017C0103C0C12C4F
:100B4000D12C7601C8010E949E12C701B6012C96D5
:100B50000FB6F894DEBF0FBECDBFDF91CF911F91CE
:100B60000F91FF90EF90DF90CF900895CF92DF929A
:100B7000EF92FF920F931F93CF93DF93C1E7D1E0E2
:100B800008E311E0EC2E88E1E80E89E891E00E948C
:100B90008201892B09F4DFC089E891E00E9460019D
:100BA0008A3071F480917101882309F4B1C0FE018B
:100BB00001900020E9F73197E157F14080E01FC034
:100BC000282F082E000C330B3F938F93DF93CF9386
:100BD0001F930F93DF93CF930E941514FE01019092
:100BE0000020E9F78DB79EB708960FB6F8949EBF20
:100BF0000FBE8DBFE958F14041F6D4CF8F5F682F0B
:100C000070E0E617F70708F483C0DB01AF58BE4F6A
:100C10009C919B3799F780E001C08F5F482F50E08F
:100C2000E417F50708F474C0DA01AF58BE4F9C9181
:100C30009D3799F7CB0180959095480F591F6E58B5
:100C40007E4F8EE391E00E9405146EE371E081E730
:100C500091E00E940E1420E0FE0101900020E9F7CF
:100C60003197E157F140822F90E08E179F0730F4C3
:100C7000FC01E25CFE4F10822F5FEECF0E94B104B8
:100C80006230710581059105C1F063307105810500
:100C9000910521F16130710581059105C9F50E9429
:100CA000B104D62E0E94B104F62E81E0D81230C0D5
:100CB0000E940808813061F531C00E94B104709330
:100CC0006801609367010E94B104609369017093A9
:100CD0006A0180936B0190936C011AC00E94B10469
:100CE0006130B1F40E94B104F62E8FEF8F0D843085
:100CF00008F0F12CC0904502D12CC6010E94940E40
:100D0000F81621F06F2DC6010E949C0EF09244024D
:100D1000E1E7F1E01192EE12FDCF37CF20914102D1
:100D20002F19022E000C330B37FF03C0319521958C
:100D300031092330310564F3F09241028F2D0E9476
:100D40006402809133029BEF980F909343028B5F74
:100D500080934202DDCFDF91CF911F910F91FF90E1
:100D6000EF90DF90CF9008950E948E0181110C9436
:100D7000B60508951F920F920FB60F9211242F936C
:100D80003F934F935F936F937F938F939F93AF9313
:100D9000BF93EF93FF9389E891E00E949801FF9140
:100DA000EF91BF91AF919F918F917F916F915F91E3
:100DB0004F913F912F910F900FBE0F901F9018955C
:100DC0001F920F920FB60F9211242F938F939F9320
:100DD000EF93FF93E0919901F0919A018081E09166
:100DE0009F01F091A00182FD12C090818091A2012B
:100DF0008F5F8F732091A301821751F0E091A201C0
:100E0000F0E0E757FE4F958F8093A20101C08081EB
:100E1000FF91EF919F918F912F910F900FBE0F90A7
:100E20001F901895CF93DF93282F30E0F901EB56F0
:100E3000FE4F8491F901E25EFE4FD491F901E65F25
:100E4000FE4FC491CC2391F081110E942202EC2F1D
:100E5000F0E0EE0FFF1FE050FF4FA591B491EC9131
:100E6000ED2381E090E021F480E002C080E090E09A
:100E7000DF91CF9108951F93CF93DF93282F30E018
:100E8000F901EB56FE4F8491F901E25EFE4FD491D9
:100E9000F901E65FFE4FC491CC23C9F0162F8111F2
:100EA0000E942202EC2FF0E0EE0FFF1FEA50FF4FEE
:100EB000A591B4918FB7F894111105C09C91ED2FB5
:100EC000E095E92302C0EC91ED2BEC938FBFDF910D
:100ED000CF911F910895CF93DF9390E0FC01E25EE4
:100EE000FE4F2491FC01E65FFE4F8491882361F15F
:100EF00090E0880F991FFC01E451FF4FC591D491F8
:100F0000FC01EA50FF4FA591B491611109C09FB750
:100F1000F8948881209582238883EC912E230BC03E
:100F2000623061F49FB7F8943881822F80958323D3
:100F30008883EC912E2B2C939FBF06C08FB7F8941B
:100F4000E8812E2B28838FBFDF91CF9108958E30BB
:100F500008F08E508770806480937C0080917A00C6
:100F6000806480937A0080917A0086FDFCCF809126
:100F700078002091790090E0922B08951F920F92B3
:100F80000FB60F9211242F933F938F939F93AF939C
:100F9000BF9380915B0190915C01A0915D01B09144
:100FA0005E0130915A0123E0230F2D3720F4019682
:100FB000A11DB11D05C026E8230F0296A11DB11D7C
:100FC00020935A0180935B0190935C01A0935D0193
:100FD000B0935E018091560190915701A091580104
:100FE000B09159010196A11DB11D809356019093B6
:100FF0005701A0935801B0935901BF91AF919F91B0
:101000008F913F912F910F900FBE0F901F901895C9
:10101000CF93DF93C6E2D2E08F8D90E00E94940ED2
:101020008E8FDF91CF910895CF92DF92EF92FF9252
:101030000F931F93CF93CAE0E12CF12C03EE13E042
:1010400080912C020E94A707E80EF91EC8010197A3
:10105000F1F7C150A9F7C7016AE070E00E94DB1107
:101060007093320260933102C0902F02D090300210
:10107000E12CF12CCB01A0E0B0E09C01AD012C19DA
:101080003D094E095F09A4E6B0E00E94C90E209117
:101090002D0230912E02890120E030E0A901980153
:1010A0002C193D094E095F090E94AA0E57FD07C081
:1010B000253631054105510524F4C90104C080E0FD
:1010C00001C084E690E08093330290933402CF9184
:1010D0001F910F91FF90EF90DF90CF900895CF93E5
:1010E000DF930E941408C6E2D2E08F850E94A70712
:1010F000998B888B8A890E94A7079C8B8B8B8D8903
:101100000E9412079F8B8E8B888D0E9412079A8FE8
:10111000898FDF91CF9108951F93CF93DF93C6E21C
:10112000D2E01C821B821A8161E0812F0E946B0732
:1011300060E0812F0E943B0760E089810E943B07AD
:1011400060E08881DF91CF911F910C943B07CF9293
:10115000DF92FF920F931F93CF93DF93EC010E94D6
:101160006F08D7FF33C080913C0290913D020197F8
:1011700051F08091430290E020913302309134028B
:10118000281739074CF4DF91CF911F910F91FF90F1
:10119000DF90CF900C948C08C1308FEFD80714F4F7
:1011A000C1E0DFEFD195C195D10980912B02882351
:1011B00031F010922B0210922A021092290260E064
:1011C000809126020E943B0761E02AC080913F0285
:1011D000909140020197B9F220913302309134028C
:1011E0008091420290E0821793076CF22536310518
:1011F00054F680912B02811107C081E080932B026D
:1012000010922A0210922902CF3FD10519F014F052
:10121000CFEFD0E061E0809126020E943B0760E0C2
:10122000809127020E943B078091290290912A0217
:101230008C179D0761F4D0932A02C0932902DF9195
:10124000CF911F910F91FF90DF90CF90089500E014
:1012500010E08BECC82E87E0D82E0C171D0759F331
:10126000F090280261E08F2D0E946B070115110597
:1012700009F447C00F3F110509F445C0EF2DF0E018
:10128000EB56FE4FE491E330F9F048F4E130B9F069
:10129000E230A1F584B5806284BD08BD38C0E73076
:1012A000E9F0E83019F1E43049F58091800080627E
:1012B0008093800010938B0000938A0028C084B52F
:1012C000806884BD07BD23C08091800080688093C2
:1012D0008000109389000093880019C08091B000AD
:1012E00080688093B0000093B30011C08091B0007B
:1012F00080628093B0000093B40009C000381105EB
:1013000014F460E001C061E08F2D0E943B07C6012C
:101310000197F1F70F5F1F4FA0CF009769F0FC0115
:1013200001900020E9F73197AF01481B590BBC0130
:1013300089E891E00C94220180E090E008958F927A
:101340009F92AF92BF920F931F93CF93DF93CDB72E
:10135000DEB7A1970FB6F894DEBF0FBECDBF19A2BE
:10136000423008F44AE08E010F5D1F4F842E912C0D
:10137000A12CB12CA50194010E940B0FE62FB901FD
:10138000CA0101501109EA3014F4E05D01C0E95CC2
:10139000D801EC93232B242B252B61F7C8010E9445
:1013A0008D09A1960FB6F894DEBF0FBECDBFDF91B9
:1013B000CF911F910F91BF90AF909F908F90089504
:1013C000CF92DF92EF92FF92CF93DF936B017C017C
:1013D000E0918901F0918A010190F081E02D6DE2A8
:1013E00089E891E00995EC0166277727CB016C1914
:1013F0007D098E099F094AE00E949F098C0F9D1F5D
:10140000DF91CF91FF90EF90DF90CF900895CF9331
:10141000DF93CDB7DEB764970FB6F894DEBF0FBE8B
:10142000CDBF789484B5826084BD84B5816084BD6D
:1014300085B5826085BD85B5816085BD80916E0072
:10144000816080936E0010928100809181008260A3
:1014500080938100809181008160809381008091E0
:1014600080008160809380008091B10084608093CF
:10147000B1008091B00081608093B00080917A00CB
:10148000846080937A0080917A00826080937A00F1
:1014900080917A00816080937A0080917A008068E0
:1014A00080937A001092C10010927101E09199012D
:1014B000F0919A0182E08083E0919501F09196018C
:1014C0001082E0919701F09198018FEC8083109247
:1014D000A101E0919D01F0919E0186E08083E09161
:1014E0009B01F0919C01808180618083E0919B0150
:1014F000F0919C01808188608083E0919B01F09154
:101500009C01808180688083E0919B01F0919C0127
:1015100080818F7D80838DE0809326028CE0809394
:10152000270289E08093280282E180932C028EE6D4
:1015300090E09093300280932F0289EB92E0909399
:101540002E0280932D0285E080933B0284E08093FD
:101550003E0280E18093350281E1809338020E944F
:1015600008088093440281E080932B0210922A02A3
:101570001092290261E0809126020E946B0761E0CF
:10158000809127020E946B0761E0809128020E94EF
:101590006B0760E080913B020E946B0760E08091E6
:1015A0003E020E946B070E944B0269837A838B8301
:1015B0009C8380916D0190916E01A0916F01B0911B
:1015C000700129813A814B815C81281B390B4A0BC0
:1015D0005B0B2A3031054105510508F4A8C189810A
:1015E0009A81AB81BC8180936D0190936E01A09331
:1015F0006F01B09370010E946F080E94080882304A
:1016000009F44BC1833009F092C1209169013091F6
:101610006A0140916B0150916C012D833E834F8391
:101620005887DA01C90181569445A109B1098F3D56
:10163000944CA105B10508F07AC1609167017091E1
:10164000680180E090E00E94750D6B017C0120E054
:1016500030E040EA50E40E94E40F2B013C0120E01E
:1016600030E040E850E4C701B6010E94E40F69870A
:101670007A878B879C8720E030E040E450E4C70104
:10168000B6010E94E40F6D877E878F87988BA70134
:101690009601C701B6010E94D60D698B7A8B8B8BA0
:1016A0009C8B28E03DEB41E053E3C301B2010E9473
:1016B000D60D4B015C0120E938E246EA57E3698523
:1016C0007A858B859C850E94D60D9B01AC01C50156
:1016D000B4010E943C0F4B015C012CE53BE94BE659
:1016E0005BE36D857E858F8598890E94D60D9B0171
:1016F000AC01C501B4010E943D0F4B015C0129ED15
:101700003AEF49E85EE369897A898B899C890E946E
:10171000D60D9B01AC01C501B4010E943C0F4B01E9
:101720005C0121EB34E141E452E4C701B6010E94BF
:10173000D60D9B01AC01C501B4010E943D0F23EF02
:101740003AE74BE956E40E943D0F0E94B00F4B016F
:101750005C018D819E81AF81B88588159905AA05A8
:10176000BB0508F4E3C02FEA3EE942E353E3C301BB
:10177000B2010E94D60D2B013C012EE33BE443E372
:1017800058E369857A858B859C850E94D60D9B01DF
:10179000AC01C301B2010E943C0F2B013C0127EEBA
:1017A0003FE24FE75CE36D857E858F8598890E94D7
:1017B000D60D9B01AC01C301B2010E943D0F2B016C
:1017C0003C0127EA3CEB4AE050E469897A898B893D
:1017D0009C890E94D60D9B01AC01C301B2010E94FD
:1017E0003C0F2B013C0123E930EB4AE652E4C701F0
:1017F000B6010E94D60D9B01AC01C301B2010E944B
:101800003D0F2EE131E747E857E40E943D0F0E946B
:10181000B00F6B017C012D813E814F81588562178D
:1018200073078407950708F481C0281939094A0904
:101830005B09A4E6B0E00E94C90EA7019601281931
:1018400039094A095B090E940B0F2536310541050C
:10185000510510F4122F03C01F3F09F468C0809196
:10186000410290E0811B910917FD939597FF03C0FA
:1018700091958195910903970CF459C010934102F9
:10188000812F0E946402809133029BEF980F909306
:1018900043028B5F809342024AC00E946F08E0902F
:1018A0003902F0903A022091360230913702E21A62
:1018B000F30AC7010496099768F40E948C080E94F5
:1018C0004B0260935F01709360018093610190937C
:1018D00062012DC00E944B0280905F0190906001D8
:1018E000A0906101B0906201DC01CB0188199909D7
:1018F000AA09BB0988389341A105B105C0F0C70109
:101900001E141F0444F488589F4F873991055CF0DA
:1019100086E990E008C0825891098A364FEF940713
:1019200014F48AE69FEF0E94A70801C01FEF809180
:10193000630190916401A0916501B09166012981D4
:101940003A814B815C81281B390B4A0B5B0BDA0116
:10195000C901883E9340A105B10508F453C08981AF
:101960009A81AB81BC818093630190936401A093C1
:101970006501B09366010E9457028AE891E00E94D7
:1019800000016091330270913402072E000C880B25
:10199000990B97FF03C00E94E00903C04AE00E9430
:1019A0009F0988E191E00E948D0982E791E00E9401
:1019B000000180913602909137020E944B048BE522
:1019C00091E00E9400018091390290913A020E94B8
:1019D0004B048FE391E00E94000160913C02709102
:1019E0003D0280E090E04AE00E949F0982E391E09E
:1019F0000E94000180913F02909140020E944B049E
:101A00000E9457020E94B406CECDE9E8F1E01382AD
:101A1000128288EE93E0A0E0B0E084839583A683F1
:101A2000B7838AE091E09183808385EC90E095878D
:101A3000848784EC90E09787868780EC90E0918B98
:101A4000808B81EC90E0938B828B82EC90E0958B85
:101A5000848B86EC90E0978B868B118E128E138E82
:101A6000148E1092450208951F93FC019927882730
:101A7000BC01E89411911032E9F3193010F01E30D6
:101A8000C8F31B3251F01D3249F4689406C00E941D
:101A90005B0D610F711D811D911D119110531A3045
:101AA000B0F33EF490958095709561957F4F8F4F80
:101AB0009F4F1F910895592F482F372F262F660FBC
:101AC000771F881F991F660F771F881F991F620F46
:101AD000731F841F951F660F771F881F991F089516
:101AE0000E94B20D08F481E00895E89409C097FBC4
:101AF0003EF490958095709561957F4F8F4F9F4FE5
:101B00009923A9F0F92F96E9BB279395F695879528
:101B100077956795B795F111F8CFFAF4BB0F11F4EB
:101B200060FF1BC06F5F7F4F8F4F9F4F16C0882392
:101B300011F096E911C0772321F09EE8872F762FC8
:101B400005C0662371F096E8862F70E060E02AF009
:101B50009A95660F771F881FDAF7880F96958795F5
:101B600097F90895990F0008550FAA0BE0E8FEEFCA
:101B700016161706E807F907C0F012161306E40751
:101B8000F50798F0621B730B840B950B39F40A264A
:101B900061F0232B242B252B21F408950A2609F428
:101BA000A140A6958FEF811D811D08950E94E90D2A
:101BB0000C945A0E0E944C0E38F00E94530E20F0E6
:101BC000952311F00C94430E0C94490E11240C949F
:101BD0008E0E0E946B0E70F3959FC1F3950F50E02F
:101BE000551F629FF001729FBB27F00DB11D639FCF
:101BF000AA27F00DB11DAA1F649F6627B00DA11D75
:101C0000661F829F2227B00DA11D621F739FB00D1A
:101C1000A11D621F839FA00D611D221F749F33278A
:101C2000A00D611D231F849F600D211D822F762F23
:101C30006A2F11249F5750409AF0F1F088234AF000
:101C4000EE0FFF1FBB1F661F771F881F915050406C
:101C5000A9F79E3F510580F00C94430E0C948E0E14
:101C60005F3FE4F3983ED4F3869577956795B795F3
:101C7000F795E7959F5FC1F7FE2B880F911D96950D
:101C8000879597F9089597F99F6780E870E060E07D
:101C900008959FEF80EC089500240A941616170605
:101CA00018060906089500240A941216130614064D
:101CB00005060895092E0394000C11F4882352F0B0
:101CC000BB0F40F4BF2B11F460FF04C06F5F7F4F68
:101CD0008F4F9F4F089557FD9058440F551F59F04F
:101CE0005F3F71F04795880F97FB991F61F09F3F09
:101CF00079F087950895121613061406551FF2CF32
:101D00004695F1DF08C0161617061806991FF1CF81
:101D100086957105610508940895E894BB276627A8
:101D20007727CB0197F90895F999FECF92BD81BD30
:101D3000F89A992780B50895262FF999FECF1FBAF2
:101D400092BD81BD20BD0FB6F894FA9AF99A0FBEE4
:101D500001960895052E97FB1EF400940E94C10E73
:101D600057FD07D00E940B0F07FC03D04EF40C94D4
:101D7000C10E50954095309521953F4F4F4F5F4F85
:101D8000089590958095709561957F4F8F4F9F4FE7
:101D900008950E942D0FA59F900DB49F900DA49FB4
:101DA000800D911D112408952F923F924F925F92C2
:101DB0006F927F928F929F92AF92BF92CF92DF925B
:101DC000EF92FF920F931F93CF93DF93CDB7DEB7C0
:101DD000CA1BDB0B0FB6F894DEBF0FBECDBF099454
:101DE0002A88398848885F846E847D848C849B84AB
:101DF000AA84B984C884DF80EE80FD800C811B81B9
:101E0000AA81B981CE0FD11D0FB6F894DEBF0FBEE7
:101E1000CDBFED010895A1E21A2EAA1BBB1BFD0147
:101E20000DC0AA1FBB1FEE1FFF1FA217B307E407B9
:101E3000F50720F0A21BB30BE40BF50B661F771F11
:101E4000881F991F1A9469F76095709580959095F1
:101E50009B01AC01BD01CF010895A29FB001B39FCA
:101E6000C001A39F700D811D1124911DB29F700DA3
:101E7000811D1124911D08955058BB27AA270E9447
:101E8000540F0C945A0E0E944C0E38F00E94530EC0
:101E900020F039F49F3F19F426F40C94490E0EF407
:101EA000E095E7FB0C94430EE92F0E946B0E58F36C
:101EB000BA17620773078407950720F079F4A6F52F
:101EC0000C948D0E0EF4E0950B2EBA2FA02D0B0165
:101ED000B90190010C01CA01A0011124FF27591B6F
:101EE00099F0593F50F4503E68F11A16F040A22F75
:101EF000232F342F4427585FF3CF469537952795E6
:101F0000A795F0405395C9F77EF41F16BA0B620BE4
:101F1000730B840BBAF09150A1F0FF0FBB1F661F2B
:101F2000771F881FC2F70EC0BA0F621F731F841F6E
:101F300048F4879577956795B795F7959E3F08F094
:101F4000B0CF9395880F08F09927EE0F9795879556
:101F500008950E94B00F6894B1110C948E0E0895EC
:101F60000E94730E88F09F5798F0B92F9927B751A8
:101F7000B0F0E1F0660F771F881F991F1AF0BA952D
:101F8000C9F714C0B13091F00E948D0EB1E00895F0
:101F90000C948D0E672F782F8827B85F39F0B93FE2
:101FA000CCF3869577956795B395D9F73EF49095E0
:101FB0008095709561957F4F8F4F9F4F08950E9438
:101FC000B20D08F48FEF0895FA01EE0FFF1F30965F
:101FD00021053105A1F16115710561F48038BFE378
:101FE0009B0749F168949038810561F08038BFEF14
:101FF0009B0741F099234AF5FF3FE1053105210593
:1020000019F1E8940894E795D901AA2329F4AB2F94
:10201000BE2FF85FD0F310C0FF5F70F4A695E0F715
:10202000F73950F019F0FF3A38F49F779F930DD0AD
:102030000F9007FC9058089546F00C94490E60E00C
:1020400070E080E89FE308954FE79F775F934F9399
:102050003F932F930E94DF102F913F914F915F91FB
:102060000E94D60D0C943C1029F416F00C94430EEB
:102070000C948D0E0C94490E0E94730EA8F39638A2
:10208000A0F707F80F92E8942BE33AEA48EB5FE7F2
:102090000E94EC0D0F920F920F924DB75EB70F9208
:1020A0000E942711E8E6F0E00E946E104F915F91C8
:1020B000EF91FF91E595EE1FFF1F49F0FE57E06895
:1020C0004427EE0F441FFA95E1F74195550B0E9406
:1020D000A1100F9007FE0C9495100895DF93CF93F5
:1020E0001F930F93FF92EF92DF927B018C01689414
:1020F00006C0DA2EEF010E94E90DFE01E894A591D9
:102100002591359145915591A6F3EF010E94540F09
:10211000FE019701A801DA9469F7DF90EF90FF9034
:102120000F911F91CF91DF9108959B01AC0160E069
:1021300070E080E89FE30C945B110C94430E0C94C8
:10214000CD110E94730ED8F39923C9F3940F511D3A
:10215000A3F39150504094F059F0882332F0660F69
:10216000771F881F91505040C1F79E3F51052CF7B3
:10217000880F911D9695879597F908955F3FACF06C
:10218000983E9CF0BB27869577956795B79508F4A0
:10219000B1609395C1F7BB0F58F711F460FFE8CF1A
:1021A0006F5F7F4F8F4F9F4FE3CF0C948E0E16F0D3
:1021B0000C94CD110C94490E68940C94430E0E941B
:1021C000730EA8F39923C1F3AEF3DF93CF931F935C
:1021D0000F93FF92C92FDD2788232AF02197660FDE
:1021E000771F881FDAF720E030E040E85FEB9FE3DD
:1021F000883920F0803E38F021968F770E943D0F7D
:10220000E0E9F0E004C00E943D0FEDEBF0E00E9439
:102210006E108B01BE01EC01FB2E6F577109759595
:10222000771F880B990B0E94770D28E132E741E375
:102230005FE30E94E90DAF2D9801AE01FF900F9171
:102240001F91CF91DF910E94540F0C945A0EFA0106
:10225000DC01AA0FBB1F9B01AC01BF5728F422274A
:1022600033274427507820C0B75190F4AB2F002477
:10227000469537952795011CA395D2F3002071F060
:10228000220F331F441FB395DAF30ED00C943C0F8A
:1022900061307105A0E88A07B94630F49B01AC01B2
:1022A0006627772788279078309621F0208331831E
:1022B0004283538308950E946F110C945A0E0E941A
:1022C000530E58F00E944C0E40F029F45F3F29F065
:1022D0000C94430E51110C948E0E0C94490E0E94D6
:1022E0006B0E68F39923B1F3552391F3951B550BAE
:1022F000BB27AA2762177307840738F09F5F5F4FD9
:10230000220F331F441FAA1FA9F335D00E2E3AF017
:10231000E0E832D091505040E695001CCAF72BD02F
:10232000FE2F29D0660F771F881FBB1F2617370780
:102330004807AB07B0E809F0BB0B802DBF01FF27B2
:1023400093585F4F3AF09E3F510578F00C94430E3E
:102350000C948E0E5F3FE4F3983ED4F38695779508
:102360006795B795F7959F5FC9F7880F911D96956B
:10237000879597F90895E1E0660F771F881FBB1FC7
:10238000621773078407BA0720F0621B730B840B74
:10239000BA0BEE1F88F7E09508959F3F31F09150FA
:1023A00020F4879577956795B795880F911D969539
:1023B000879597F9089597FB072E16F4009407D098
:1023C00077FD09D00E94EF1107FC05D03EF49095EF
:1023D00081959F4F0895709561957F4F0895AA1B31
:1023E000BB1B51E107C0AA1FBB1FA617B70710F000
:1023F000A61BB70B881F991F5A95A9F78095909532
:10240000BC01CD010895EE0FFF1F0590F491E02D62
:102410000994CF93DF938230910510F482E090E02D
:10242000E0914802F091490220E030E0C0E0D0E0C5
:10243000309711F14081518148175907C0F0481772
:10244000590761F482819381209719F09B838A83D5
:102450002BC0909349028093480226C02115310574
:1024600019F04217530718F49A01BE01DF01EF017A
:102470000280F381E02DDCCF2115310509F1281B05
:10248000390B2430310590F412968D919C9113975D
:102490006115710521F0FB019383828304C0909341
:1024A000490280934802FD01329644C0FD01E20FCB
:1024B000F31F81939193225031092D933C933AC09D
:1024C0002091460230914702232B41F420910201D2
:1024D000309103013093470220934602209100017E
:1024E000309101012115310541F42DB73EB74091DE
:1024F000040150910501241B350BE0914602F09137
:102500004702E217F307A0F42E1B3F0B28173907E9
:1025100078F0AC014E5F5F4F2417350748F04E0F3F
:102520005F1F50934702409346028193919302C0EC
:10253000E0E0F0E0CF01DF91CF9108950F931F937A
:10254000CF93DF93009709F48CC0FC01329713827C
:10255000128200914802109149020115110581F47F
:1025600020813181820F931F2091460230914702D2
:102570002817390779F5F0934702E093460271C0B6
:10258000D80140E050E0AE17BF0750F412962D91ED
:102590003C911397AD012115310509F1D901F3CF14
:1025A0009D01DA013383228360817181860F971F39
:1025B0008217930769F4EC0128813981260F371FB0
:1025C0002E5F3F4F318320838A819B819383828357
:1025D000452B29F4F0934902E093480242C0139638
:1025E000FC93EE931297ED01499159919E01240FAE
:1025F000351FE217F30771F480819181840F951FD5
:10260000029611969C938E938281938113969C934C
:102610008E931297E0E0F0E0D80112968D919C9194
:102620001397009719F0F8018C01F6CF8D919C91CA
:1026300098012E5F3F4F820F931F209146023091E9
:1026400047022817390769F4309729F41092490294
:102650001092480202C01382128210934702009324
:102660004602DF91CF911F910F910895A0E0B0E055
:10267000ECE3F3E10C94D80EEC01009721F4CB01CC
:102680000E940912B8C0FC01E60FF71F9C012250FE
:102690003109E217F30708F4ACC0D9010D911C9180
:1026A000119706171707B0F00530110508F49FC001
:1026B000C80104978617970708F499C002501109BA
:1026C000061B170B019311936D937C93CF010E940E
:1026D0009E128DC05B01A01AB10A4C01800E911EA2
:1026E000A0914802B091490240E050E0E12CF12C69
:1026F000109709F44AC0A815B905D1F56D907C90E2
:102700001197630182E0C80ED11CCA14DB0480F16A
:10271000A3014A195B096A0182E0C80ED11C129616
:10272000BC9012971396AC91B5E0CB16D10440F053
:10273000B282A38351834083D9016D937C930AC0F5
:102740000E5F1F4FC301800F911FF901918380839A
:10275000EB2DFA2FE114F10431F0D7011396FC931D
:10276000EE93129744C0F0934902E09348023FC0B1
:102770008D919C9111974817590708F4AC017D0180
:1027800012960D90BC91A02DB3CF809146029091EE
:10279000470288159905E1F446175707C8F4809158
:1027A000000190910101009741F48DB79EB74091CF
:1027B000040150910501841B950BE817F907C8F433
:1027C000F0934702E0934602F901718360830FC0E2
:1027D000CB010E9409127C01009759F0A801BE01AB
:1027E0000E940514CE010E949E12C70104C0CE01B2
:1027F00002C080E090E0CDB7DEB7EEE00C94F40EBE
:1028000081E090E0F8940C94B616FB01DC0102C064
:1028100001900D9241505040D8F70895FB01DC0122
:1028200001900D920020E1F70895AEE0B0E0EBE1F9
:10283000F4E10C94E20E0D891E8986E08C831A83E4
:1028400009838FEF9FE79E838D83AE01475E5F4FC5
:102850006F89788DCE0101960E9438142F813885BA
:10286000F801E20FF31F10822E96E4E00C94FE0EA6
:10287000ACE0B0E0EEE3F4E10C94D40E7C016B012B
:102880008A01FC0117821682838181FFBDC1CE01BE
:1028900001964C01F7019381F60193FD859193FF19
:1028A00081916F01882309F4ABC1853239F493FD1E
:1028B000859193FF81916F01853229F4B70190E0F2
:1028C0000E942016E7CF512C312C20E02032A0F4BA
:1028D0008B3269F030F4803259F0833269F4206130
:1028E0002CC08D3239F0803339F4216026C022604B
:1028F000246023C0286021C027FD27C030ED380F99
:102900003A3078F426FF06C0FAE05F9E300D1124BD
:10291000532E13C08AE0389E300D1124332E2062CE
:102920000CC08E3221F426FD6BC1206406C08C36AB
:1029300011F4206802C0883641F4F60193FD8591B8
:1029400093FF81916F018111C1CF982F9F7D955485
:10295000933028F40C5F1F4FFFE3F9830DC08336DB
:1029600031F0833771F0833509F05BC022C0F80184
:10297000808189830E5F1F4F44244394512C54015E
:1029800015C03801F2E06F0E711CF801A080B18013
:1029900026FF03C0652D70E002C06FEF7FEFC50119
:1029A0002C870E9415162C0183012C852F77222E4F
:1029B00017C03801F2E06F0E711CF801A080B180E1
:1029C00026FF03C0652D70E002C06FEF7FEFC501E9
:1029D0002C870E940A162C012C852068222E830148
:1029E00023FC1BC0832D90E048165906B0F4B701B4
:1029F00080E290E00E9420163A94F4CFF50127FC83
:102A0000859127FE81915F01B70190E00E94201619
:102A100031103A94F1E04F1A51084114510471F702
:102A2000E5C0843611F0893639F5F80127FF07C073
:102A300060817181828193810C5F1F4F08C060812A
:102A40007181072E000C880B990B0E5F1F4F2F769C
:102A5000722E97FF09C090958095709561957F4F74
:102A60008F4F9F4F2068722E2AE030E0A4010E9411
:102A70005816A82EA81844C0853729F42F7EB22EE8
:102A80002AE030E025C0F22FF97FBF2E8F36C1F04B
:102A900018F4883579F0B4C0803719F0883721F000
:102AA000AFC02F2F2061B22EB4FE0DC08B2D8460DD
:102AB000B82E09C024FF0AC09F2F9660B92E06C009
:102AC00028E030E005C020E130E002C020E132E043
:102AD000F801B7FE07C060817181828193810C5F2C
:102AE0001F4F06C06081718180E090E00E5F1F4F34
:102AF000A4010E945816A82EA818FB2DFF777F2E40
:102B000076FE0BC0372D3E7FA51450F474FE0AC02C
:102B100072FC08C0372D3E7E05C0BA2C372D03C08D
:102B2000BA2C01C0B52C34FF0DC0FE01EA0DF11D19
:102B30008081803311F4397E09C032FF06C0B3941E
:102B4000B39404C0832F867809F0B39433FD13C087
:102B500030FF06C05A2CB31418F4530C5B18B32C76
:102B6000B31468F4B70180E290E03C870E9420161D
:102B7000B3943C85F5CFB31410F43B1801C0312C4D
:102B800034FF12C0B70180E390E03C870E9420161A
:102B90003C8532FF17C031FD03C088E790E002C0DA
:102BA00088E590E0B7010CC0832F867859F031FF9B
:102BB00002C08BE201C080E237FD8DE2B70190E0F8
:102BC0000E942016A51438F4B70180E390E00E941B
:102BD00020165A94F7CFAA94F401EA0DF11D8081D2
:102BE000B70190E00E942016A110F5CF332009F420
:102BF00051CEB70180E290E00E9420163A94F6CFC1
:102C0000F7018681978102C08FEF9FEF2C96E2E15A
:102C10000C94F00EFC010590615070400110D8F743
:102C2000809590958E0F9F1F0895FC016150704014
:102C300001900110D8F7809590958E0F9F1F0895F1
:102C40000F931F93CF93DF93FB01238121FD03C0DB
:102C50008FEF9FEF28C022FF16C046815781248145
:102C600035814217530744F4A081B1819D012F5F44
:102C70003F4F318320838C93268137812F5F3F4FD5
:102C80003783268310C0EB01092F182F0084F185AC
:102C9000E02D0995892BE1F68E819F8101969F8316
:102CA0008E83812F902FDF91CF911F910F910895E7
:102CB000FA01AA27283051F1203181F1E8946F936D
:102CC0006E7F6E5F7F4F8F4F9F4FAF4FB1E03ED013
:102CD000B4E03CD0670F781F891F9A1FA11D680FB1
:102CE000791F8A1F911DA11D6A0F711D811D911DE4
:102CF000A11D20D009F468943F912AE0269F112459
:102D00003019305D3193DEF6CF010895462F4770BC
:102D1000405D4193B3E00FD0C9F7F6CF462F4F7017
:102D2000405D4A3318F0495D31FD4052419302D075
:102D3000A9F7EACFB4E0A69597958795779567951B
:102D4000BA95C9F700976105710508959B01AC011B
:102D50000A2E06945795479537952795BA95C9F742
:102D6000620F731F841F951FA01D0895F894FFCF55
:102D700000004A02800000000000B9012201510158
:102D800000028201600174010D0A004D6F7665201A
:102D900064653A20002520506172613A20002500C8
:0E2DA00074696D654F7574002573256300001E
:107E0000112484B714BE81FFF0D085E080938100F7
:107E100082E08093C00088E18093C10086E0809377
:107E2000C20080E18093C4008EE0C9D0259A86E02C
:107E300020E33CEF91E0309385002093840096BBD3
:107E4000B09BFECF1D9AA8958150A9F7CC24DD24C4
:107E500088248394B5E0AB2EA1E19A2EF3E0BF2EE7
:107E6000A2D0813461F49FD0082FAFD0023811F036
:107E7000013811F484E001C083E08DD089C08234E0
:107E800011F484E103C0853419F485E0A6D080C0E4
:107E9000853579F488D0E82EFF2485D0082F10E0AE
:107EA000102F00270E291F29000F111F8ED06801E7
:107EB0006FC0863521F484E090D080E0DECF843638
:107EC00009F040C070D06FD0082F6DD080E0C81688
:107ED00080E7D80618F4F601B7BEE895C0E0D1E017
:107EE00062D089930C17E1F7F0E0CF16F0E7DF06D8
:107EF00018F0F601B7BEE89568D007B600FCFDCFD4
:107F0000A601A0E0B1E02C9130E011968C91119780
:107F100090E0982F8827822B932B1296FA010C0160
:107F200087BEE89511244E5F5F4FF1E0A038BF0790
:107F300051F7F601A7BEE89507B600FCFDCF97BE46
:107F4000E89526C08437B1F42ED02DD0F82E2BD052
:107F50003CD0F601EF2C8F010F5F1F4F84911BD097
:107F6000EA94F801C1F70894C11CD11CFA94CF0C13
:107F7000D11C0EC0853739F428D08EE10CD085E9AC
:107F80000AD08FE07ACF813511F488E018D01DD067
:107F900080E101D065CF982F8091C00085FFFCCF94
:107FA0009093C60008958091C00087FFFCCF809118
:107FB000C00084FD01C0A8958091C6000895E0E648
:107FC000F0E098E1908380830895EDDF803219F02E
:107FD00088E0F5DFFFCF84E1DECF1F93182FE3DFCA
:107FE0001150E9F7F2DF1F91089580E0E8DFEE27F6
:047FF000FF270994CA
:027FFE00040479
:0400000300007E007B
:00000001FF
